:0205CC000570B8
:0205CE0004D552
:100570001205387F0A7E0012058712050A7F0112D4
:07058000018BE4FF020214ED
:1004D500C2025396FE43970143C604759E04439D8D
:1004E50002539DFD539DDFE4F59C439D04200207C7
:1004F500D202E4F59C8005C202759C207D327F8086
:0505050012029D80E8D8
:1005380075A15575A1AA43B94053B97F75A15575E1
:0E054800A1AAE5B954F84406F5B9E4F5A122DC
:10055600EF4E601505A105A105A105A105A105A1FF
:0A05660005A1EF1F70EA1E80E722D6
:10058700AD07AC06ED4C600E7FE87E03120556ED15
:070597001D70F11C80EE2233
:0405C80043C61022F4
:10045C00C29FD29EC29DC2CDC2CC438780E475118F
:10046C0004751001F50FF50E7B0AFAF9F8AF11AE11
:10047C0010AD0FAC0E120338AF038F12AF11AE10CC
:10048C00AD0FAC0EE47B0AFAF9F81203388F118E1B
:10049C00108D0F8C0EC3E51294057480948040115E
:1004AC00EF2401F511E43EF510E43DF50FE43CF5C5
:1004BC000EE589540F4420F58943C9A0E511F404D5
:0804CC00F58DD28ED299D29C6D
:0104D4002205
:080003003098FDC298AF99226C
:0805B5008F993099FDC29922D3
:10059E0075A15575A1AAEF600543B101800353B152
:0705AE00FEE4F5A1F5FF22B8
:0305D0008FFF2278
:0505BD000313003800EB
:10050A00E4F5E275E20653E2FB53D17F5396BF53FB
:10051A0097BF7F0AFE12058730B612C2AFE4F5898B
:0E052A007F64FE120587AA14A9151203CA22C7
:0505C300E5D1A2E522D4
:03000B00020013DD
:10000E00C2AF80FE3212001285D00B75D008FAC234
:10001E008CE58A24E7F58AE58C34B1F58CD28CEC2C
:10002E00241BF8E6BC010274FFC39581B414004092
:10003E00CF7902781616E608700BC2AFE630E103F0
:10004E004418F6D2AF08D9EDEA8BD0300003D201B6
:10005E0022D50DFAC0E0C0D0C0F0C083C082C0006F
:10006E00C001C002C003C004C005C006C007E50C35
:10007E00232417F87440C2AF46F6D2AFD200E50C77
:10008E00FF232417F80F0808EFB50C0610010343E1
:10009E008701BF02047F007817E630E4E800E50C24
:1000AE00C39F5020050C741A250CF8E6FDA6810896
:1000BE00E6AE0CBE010274FFCDF8E86D60E008E616
:1000CE00C0E080F6E50CD39F4027E50C241BF8E634
:1000DE00AE0CBE010274FFFD18E6CDF8E5816D6031
:1000EE0006D0E0F61880F5E50C241AC8F6150C803B
:1000FE00D3750D05E50C232417F87F04C2AFE61067
:02010E00E61EEB
:1001100030E00310E20C7F0030E10730E3047F0899
:1001200054F4C2E7C6D2AF54804207C20022F6D2CE
:10013000AFD007D006D005D004D003D002D001D074
:1001400000D082D083D0F0D0D0D0E0C20022781A84
:10015000A68174016006FF0876FFDFFB7F02E4786A
:1001600016F608F608DFFA781776309005CC740199
:1001700093C0E0E493C0E0750D05438901758AE002
:0B018000758CB1D28CD2AFD2A9220145
:10018B00EFD3940140037FFF2274172F2FF8E62043
:10019B00E5F4C2AFE64430F6D2AFAE0CEEC39F50DF
:1001AB00210E741A2EF8E6F908E618BE010274FF48
:1001BB00FDED69600909E71919F7090980F31616AE
:1001CB0080DAEED39F400405810581EED39F402258
:1001DB00741A2EF808E6F9EEB50C02A9811806067A
:1001EB00E6FDED6960091919E70909F71980F31E96
:1001FB0080D9EF241AF8E604F8EF2F049005CC937E
:09020B00F608EF2F93F67F0022A4
:10021400EFD3940140037FFF22EF232417F8E63045
:10022400E5F4C2AFE6548CF6D2AFE50CB5070A7418
:100234001A2FF8E6F58102008A502E741B2FF8E677
:10024400BF010274FFFD18E6F9741A2FF8FBE6FCEF
:10025400E96C6008A805E7F61D1980F4A803A60553
:100264001FE50CB507E37F0022741B2FF8E6FD1889
:1002740086010F741A2FF8A601088604E50CB50749
:1002840002AC81ED6C60080D09A805E6F780F4E581
:090294000CB507DE89817F002210
:10029D008FF0E4FFFEE50C232416F8C2A930F70D0C
:1002AD007F08E6600B2DF660325030800730F10686
:1002BD00EDF660277E020830F010C2AFE610E7259C
:1002CD000E30E20CD2AF7F048014C2AFE610E715FA
:1002DD0054EC4EF6D2AFD2A902008A7F0808EF4443
:0F02ED0083F4C2AF56C6D2AFD2A954804FFF22BE
:030000000203D028
:0C03D000787FE4F6D8FD75812002041748
:1002FC0075F008758200EF2FFFEE33FECD33CDCCB9
:10030C0033CCC58233C5829BED9AEC99E58298403B
:10031C000CF582EE9BFEED9AFDEC99FC0FD5F0D618
:10032C00E4CEFBE4CDFAE4CCF9A88222B800C1B942
:10033C000059BA002DEC8BF084CFCECDFCE5F0CB80
:10034C00F97818EF2FFFEE33FEED33FDEC33FCEBB9
:10035C0033FB10D703994004EB99FB0FD8E5E4F974
:10036C00FA227818EF2FFFEE33FEED33FDEC33FC61
:10037C00C933C910D7059BE99A4007EC9BFCE99A55
:10038C00F90FD8E0E4C9FAE4CCFB2275F010EF2F9A
:10039C00FFEE33FEED33FDCC33CCC833C810D7079A
:1003AC009BEC9AE899400AED9BFDEC9AFCE899F8D5
:0E03BC000FD5F0DAE4CDFBE4CCFAE4C8F92268
:0603CA008A838982E473BE
:1003DC0002014EE493A3F8E493A34003F68001F2E8
:1003EC0008DFF48029E493A3F85407240CC8C33322
:1003FC00C4540F4420C8834004F456800146F6DFF1
:10040C00E4800B01020408102040809005BDE47EBE
:10041C00019360BCA3FF543F30E509541FFEE493E5
:10042C00A360010ECF54C025E060A840B8E493A3AC
:10043C00FAE493A3F8E493A3C8C582C8CAC583CAD7
:10044C00F0A3C8C582C8CAC583CADFE9DEE780BE8F
:0105C2000038
:00000001FF
