:0600000002006B0201EF9B
:03000B0002048864
:03001300020242A4
:01001B0032B2
:0300230002015780
:03002B00020C8242
:01003300329A
:03003B0002029529
:030043000201189F
:01004B003282
:030053000201A304
:01005B003272
:03006300020C800C
:030066000202E9AA
:02006900E4733E
:0D006B007581271202F7E58260030200662E
:100078007919E94400601B7A0190126278DC75A056
:1000880000E493F2A308B8000205A0D9F4DAF275E7
:02009800A0FFC7
:06009A00E478FFF6D8FD3A
:1000A0007800E84400600A799475A000E4F309D868
:1000B000FC7848E84400600C7901900094E4F0A3D7
:0400C000D8FCD9FA95
:0600C4007510E975110240
:0E00CA007808E4F608F608F608F6780C7600DA
:0200D800C20262
:0200DA00C2045E
:0200DC00C2055B
:0300DE00020066B7
:1000E2009000947401F075821E0202FC90009574D7
:1000F20001F075821E1204139003E8E4F5F0120574
:1001020045900095E4F075821E1204139003E8E412
:05011200F5F0020545B7
:10011800C021C0E0C0F0C082C083C007C006C005CF
:10012800C004C003C002C001C000C0D075D0001216
:100138000B5DD0D0D000D001D002D003D004D005C0
:10014800D006D007D083D082D0F0D0E0D02132C002
:1001580021C0E0C0F0C082C083C007C006C005C08F
:1001680004C003C002C001C000C0D075D0003098E0
:1001780005120F96C298309905120FCCC299D0D0AB
:10018800D000D001D002D003D004D005D006D007CB
:10019800D083D082D0F0D0E0D02132C021C0E0C0DE
:1001A800F0C082C083C007C006C005C004C003C039
:1001B80002C001C000C0D075D00030C005121010B8
:1001C800C2C030C105121046C2C1D0D0D000D00183
:1001D800D002D003D004D005D006D007D083D08277
:1001E800D0F0D0E0D02132C021C0E0C0F0C082C041
:1001F80083C007C006C005C004C003C002C001C058
:1002080000C0D075D0009000E9E0FEA3E0FFC00771
:10021800C0068E828F83120069D006D007D0D0D056
:1002280000D001D002D003D004D005D006D007D02A
:1002380083D082D0F0D0E0D02132C021C0E0C0F01D
:10024800C082C083C007C006C005C004C003C00286
:10025800C001C000C0D075D0009000EBE0FEA3E064
:10026800FFC007C0068E828F83120069D006D007B0
:10027800D0D0D000D001D002D003D004D005D00611
:10028800D007D083D082D0F0D0E0D02132C021C0B6
:10029800E0C0F0C082C083C007C006C005C004C06B
:1002A80003C002C001C000C0D075D0009000DCE0DF
:1002B800FEA3E04E600E9000DCE0F8A3E0F5838832
:1002C80082120069D0D0D000D001D002D003D0046F
:1002D800D005D006D007D083D082D0F0D0E0D0218E
:1002E800321206311200E21200EE120D5180F8753A
:0302F8008200225F
:1002FC00E582FF90115D93FEEF90113593FF700135
:10030C0022900094E0FD701BBF0209EEF4FC5292A7
:10031C00EC529322BF0402800122EEF4FC5296ECC4
:10032C00529722BD0214BF0207EE4292EE42932274
:10033C00BF0439EE4296EE429722BD0116BF020869
:10034C00EEF45292EE429322BF0421EEF45296EE5A
:10035C00429722BD0316BF0208EE4292EEF452936E
:10036C0022BF0408EE4296EEF4FE529722AF82BFF3
:10037C000102800FBF02028013BF03028017BF046B
:10038C00358023E5C620E22E539DFB22E5C620E3F3
:10039C0025539DF722AEC65306047F00BE0117BF3E
:1003AC000014539DFB22AEC65306087F00BE010607
:1003BC00BF0003539DF722E582FF90110D93FEEFD2
:1003CC0090115D93FDEF90113593FF7003F5822230
:1003DC00EE600D8E82C007C005120379D005D007E0
:1003EC007E00BF0202800ABF03028009BF040C809A
:1003FC0008AE908006AEA08002AEB0ED5E600475D3
:10040C0082012275820022E582FF90110D93FEEF8E
:10041C0090115D93FDEF90113593FFEE600D8E8280
:10042C00C007C005120379D005D007A2AFE433FE94
:10043C00C2AFBF0202800ABF03028017BF0436801E
:10044C0024900095E07007EDF4FF52908027ED4268
:10045C00908022900095E07007EDF4FF52A080157B
:10046C00ED42A08010900095E07007EDF4FF52B0C3
:0B047C008003ED42B0EE6002D2AF2220
:10048800C0D075D00808B8000D09B900090ABA002B
:10049800050BBB00010CD0D032A2AFC2AFA808A98F
:1004A80009AA0AAB0BAC8A8588F092AF30F51274B2
:1004B800012C600D08B8000909B900050ABA000145
:1004C8000BC3EC9406FCECC313FC75F07DE8A4F8B0
:1004D800ADF075F07DE9A42DF9E435F0FD75F07DFA
:1004E800EAA42DFAE435F0FD75F07DEBA42DFB7D33
:1004F80000EC28F582E93DF583EA3DF5F0EB3D2275
:10050800A2AFC2AFA808A909AA0AAB0BAC0C92AF5C
:1005180075F020E8A4A8F075F020E9A428F582A8D1
:10052800F075F020EAA428F583A8F075F020EBA474
:1005380028F9A8F075F020ECA42889F02285821209
:1005480085831385F014F5151204A1858216858319
:100558001785F018F519E51245134514451570016E
:1005680022A812A913AA14AB1585161A85171B857C
:10057800181C85191DE8494A4B60DBC003C002C03E
:1005880001C0001204A1AC82AD83AEF0FFD000D050
:1005980001D002D003ECC3951AFCED951BFDEE9536
:1005A8001CFEEF951DFFC3EC94E8ED9403EE940058
:1005B800EF940040A118B8FF0919B9FF051ABAFF4E
:1005C800011B881289138A148B1574E8251AF51AE9
:1005D8007403351BF51BE4351CF51CE4351DF51DAE
:1005E800851A16851B17851C18851D198087AE82EC
:1005F800AF83C374019EE49F40022200C374029E2D
:10060800FE74009FFF00BE0005BF0002002200002C
:100618000000000000000000000000000000000EC4
:10062800BE00EB0FBF00ED002275A15575A1AA749D
:10063800F855B94406F5B975A1009013881205F666
:10064800120C2D120C57120C4675DD0075D300756F
:10065800D500759E5D759D0074F055894402F58935
:0F06680053C9EF758C06C28DD2A9D28CD2AF22A6
:10067800AFDBBF08028003020AA1900007E0FE7FFB
:1006880000900006E0FD7C004FF522EC4EF5237F3C
:1006980000900001E0F524900000E0FE54606053F3
:1006A800900000E0FE5306607D00BE2005BD0002FC
:1006B800800BBE4039BD00367FFF020AA37420B507
:1006C8002403020AA37421B5240280077422B524E6
:1006D80018800C120CD1AD82AE838D07020AA3C01C
:1006E80007120D00D007020AA37FFF020AA37FFFAB
:1006F800020AA3E52424F45003020A9DE524240BEE
:1007080083F582E524241083F583E4737FAD9D6D22
:100718009D7C2C9D89A4A3A30A080A090A08070A34
:1007280008080A0A900003E0FEBE0102800DBE021E
:1007380002801DBE0302802D02080C7526AD7527A8
:10074800119011BFE493FD740193FE8D0702080E0A
:100758007526C175271190120CE493FD740193FE60
:100768008D0702080E900002E0701575260E752799
:1007780012901212E493FD740193FE8D0702080E85
:10078800900002E0FEBE01147526527527129012E1
:1007980060E493FD740193FE8D07806A900002E087
:1007A800FEBE0214752622752712901238E493FDB6
:1007B800740193FE8D07804E900002E0FEBE031484
:1007C800752614752712901220E493FD740193FE88
:1007D8008D078032900002E0FEBE041475263A753B
:1007E8002712901250E493FD740193FE8D07801632
:1007F800752614752712901220E493FD740193FE58
:100808008D0780027FFFBFFF03020AA38F057E00CA
:10081800C3ED9522EE952350048D228E23AD22AE92
:1008280023C3ED9408EE9400920040067B087C00F8
:100838008004AB22AC238B077C00C3EC9F50198C3F
:10084800027B00EC2526F582E43527F583E493F94D
:100858008A828B83F00C80E28F037C00EDC39BFDC2
:10086800EE9CFE8D228E23EF2526F526E43527F50E
:1008780027020AA3900002E0FE8E22752300020AD6
:10088800A3900000E525F0AD22AE23C3ED9401EE60
:1008980094005003020AA37F01020AA3900002E019
:1008A800F525020AA3900000E0541F702F90000362
:1008B800E0FD7E00900002E0FC7B004206EB420572
:1008C800BE0114BD00119011C8E493FE30E5030287
:1008D8000AA37FFF020AA37FFF020AA3900000E099
:1008E800FE53061F7D00BE0277BD0074900004E031
:1008F800FEBE0102805FBE02028049BE0302803351
:10090800BE0402801DBE81028040BE8202802ABED3
:1009180083028014BE844474BC55DE4402F5DE02B2
:100928000AA353DE73020AA374BC55D64402F5D653
:10093800020AA353D673020AA374BC55D44402F521
:10094800D4020AA353D473020AA374BC55D2440236
:10095800F5D2020AA353D273020AA37FFF020AA3A5
:100968007FFF020AA3900000E0541F702F9000033D
:10097800E0FD7E00900002E0FC7B004206EB4205B1
:10098800BE0114BD00119011C8E493FE30E50302C6
:100998000AA37FFF020AA37FFF020AA3900000E0D8
:1009A800FE53061F7D00BE0205BD00028003020A39
:1009B8007B900003E0FD7E00900002E0FC7B00429B
:1009C80006EB4205EE4D6003020A77900005E0FD54
:1009D8007E00900004E0FC7B004206EB4205BE016D
:1009E80006BD0003020A6BBE0205BD00028060BEA0
:1009F8000305BD00028044BE0405BD00028028BE78
:100A08008105BD00028052BE8205BD00028036BE4F
:100A18008305BD0002801ABE8451BD004E74BF55C7
:100A2800DE4403F5DE8074747F55DE440CF5DE8009
:100A38006A74BF55D64403F5D68060747F55D64492
:100A48000CF5D6805674BF55D44403F5D4804C7445
:100A58007F55D4440CF5D4804274BF55D24403F575
:100A6800D28038747F55D2440CF5D27FFF802C7F1A
:100A7800FF80287FFF8024900000E4F0900001F0C0
:100A8800AD22AE23C3ED9402EE940040047F0280B1
:100A98000AAF2280067FFF80027FFFBFFF07752411
:100AA800FF75DCCF22EF24F740068FDD75DCC0220E
:100AB80075DD0075DCC0227405B52402805D7406FE
:100AC800B52466AE22AF23C3EE9408EF94009201DA
:100AD80040067C087D008004AC22AD237D00C3ED78
:100AE8009C50198D027B00ED2526F582E43527F50B
:100AF80083E493F98A828B83F00D80E28C037D0076
:100B0800EEC39BFEEF9DFF8E228F23EC2526F52654
:100B1800E43527F5278CDD63DC4022E5E35480FFCC
:100B2800E5224FF5E375DC022275DD0075DC022253
:100B38007420B5240D30DE10120C8C75DD0085DCB8
:100B4800DC2275DD0043DC022275D30074FC55D22B
:100B58004402F5D22220D903020C08E5D9540FFF2C
:100B6800ADD95305307E00BD0005BE0002801CBD16
:100B78001005BE00028036BD2005BE00028043BDC0
:100B88003006BE0003020BEE020C06EF24FB5003F6
:100B9800020C06EF2F900BA17380088061800980FA
:100BA8005D805B120B388056120EEC8051EF24FBEF
:100BB800404CEF2F900BC073804480428040803EB1
:100BC800803CEF24FB4037EF2F900BD573800880D3
:100BD8000B800E80298027120ABF8022120B5180B9
:100BE8001D120EDE8018EF24FB4013EF2F900BF937
:100BF8007380088009800780058003120678C2D9AF
:100C080030D81575DC0275D21275D41275E300C29E
:100C1800DAC2D9C2D8120C8410DA0122E5DA20E24D
:100C28000375D8FF2275E20053E27F43E22975E39A
:100C38000053E2BF53D1FB75D18043D1012243E178
:100C48000443E10243E10143D81FD2EAD2AF227E36
:100C5800007F008EEC8FED7E0A7F008EEE8FEF7E98
:100C6800147F008EE48FE575EB0C75D21275D412E3
:070C780075EA4075DC022261
:010C80003241
:010C8200323F
:100C84009000E5E4F0C202227F00C3E5DB94079202
:100C94000340067D077E008004ADDB7E008F037C6D
:100CA40000C3EB9DEC64808EF063F08095F0501CE3
:100CB400EF24DEFDE43400FEEF2400F582E434008A
:100CC400F583E0FC8D828E83F00F80BE227F008F3F
:100CD400057E00C3ED9407EE9400501CEF2400FD44
:100CE400E43400FEEF24DEF582E43400F583E0FC16
:100CF4008D828E83F00F80D790000722900002E04F
:100D0400FF9000E7F0E020E0339000DEE0FCA3E099
:100D1400FDA3E0FEA3E0FFBCB022BD041FBE001C87
:100D2400BF001975E200C2AF75890090C350120567
:100D3400F690C3501205F612380080FE22751E008C
:100D44009000E7E06003751E01851E8222200214D4
:100D54009000E8E0FFE0600C8FD553D4FCD2029001
:100D640000E8E4F022AF829000E7E0605E7D007E60
:100D7400003002240DBD00010E900005C007C0061E
:100D8400C0051205F6D005D006D007C3ED9450EE89
:100D940094C340DD758200229000E8E0FEBE40006E
:100DA40050207D0074402EFEE43DFDEE2414F582B7
:100DB400ED3400F583EFF09000E8E02401F0758253
:100DC4000122C007120D51D00780A275820022AF04
:100DD400F0AE83E582900098F0EEA3F0EFA3F090DC
:100DE40000E7E07003020EA6900096E0FEA3E0FF89
:100DF400C3E49E74808FF063F08095F04003020E8C
:100E0400A67E007F003002200EBE00010F90000578
:100E1400C007C0061205F6D006D007C3EE9450EF03
:100E240094C340E175820022900098E0FDA3E0FEA7
:100E3400A3E0FF900096E0FBA3E0FCC3E49B748076
:100E44008CF063F08095F0509F9000E8E0FABA408F
:100E54000050498A017A00744029F9E43AFAE924F5
:100E640014F9EA3400FA8D828E838FF0120F7AF827
:100E7400A3AD82AE83900098EDF0EEA3F0EFA3F063
:100E840089828A83E8F09000E8E02401F01BBBFF2C
:100E9400011C900096EBF0ECA3F0809F120D510220
:100EA4000DEC758200229000E5E0F582229000E5C9
:100EB400E07003F582229000E6E02414F582E43425
:100EC40000F583E0FF9000E6E004F09000E5E01414
:100ED400F0E0700353D4F38F822275D50074FC556F
:100EE400D44402F5D4C2022230DE199000E5E5DBD9
:100EF400F09000E6E4F09000E5E0600874F355D467
:050F04004408F5D422B1
:100F0A0022AF82BF02005036EF75F002A424E9F541
:100F1A0082740035F0F583E51EF0E51FA3F0BF00EB
:100F2A00028005BF0118800B90009BE024FF928885
:100F3A00D2A82290009BE0FF24FF928AD2AA22AF75
:100F4A0082BF02005028BF00028005BF010880044A
:100F5A00C2A88002C2AAEF75F002A424E9FE7400B6
:0F0F6A0035F0FF8E828F83740AF0740FA3F0228C
:100F7A0020F71430F6148883A88220F507E6A883A0
:0C0F8A0075830022E280F7E49322E0224D
:100F96009000EDE0FF7E008F828E83A3751E108E7B
:100FA6001F1210D7AE829000EEE0FFEEB5070122C9
:100FB6009000EDE0249CF582E43400F583E599F099
:100FC6009000EDEEF0223004409000EFE0FF90003C
:100FD600F0E0FEEFB50605A204C204229000F0E0A0
:100FE60024ACF582E43400F583E0F5999000F0E056
:100FF600FF7E008F828E83A3751E108E1F1210D760
:0A100600AE82AF839000F0EEF022FE
:101010009000F1E0FF7E008F828E83A3751E108EFC
:101020001F1210D7AE829000F2E0FFEEB50701224A
:101030009000F1E024BCF582E43400F583E5C1F0D2
:101040009000F1EEF0223005409000F3E0FF9000B8
:10105000F4E0FEEFB50605A205C205229000F4E01B
:1010600024CCF582E43400F583E0F5C19000F4E08F
:10107000FF7E008F828E83A3751E108E1F1210D7E5
:0A108000AE82AF839000F4EEF02280
:10108A00E51E451F60467A01E51E25E0F51EE51FAF
:10109A00334012F51FE582951EE583951F40030A2A
:1010AA0080E6C3E51F13F51FE51E13F51EC3E5828F
:1010BA00951EF5F0E583951F4005F58385F082C3FB
:1010CA00E51F13F51FE51E13F51EDAE122C2D5E569
:1010DA008330E70DD2D5E4C39582F582E49583F592
:1010EA0083E51F30E70BE4C3951EF51EE4951FF553
:1010FA001F12108A30D50BE4C39582F582E49583DA
:03110A00F5832248
:10110D0000000000000000000000000000000001D1
:10111D0000000000000000000000000000000304BB
:10112D0000000200000000000101010101010101A8
:10113D000000020202020202020200000303030386
:10114D000303030300000404040404040404000066
:10115D000102040810204080000001020408102044
:10116D0040800000010204081020408000000102B0
:10117D000408102040800000FFFFFFFFFFFFFFFF6E
:10118D00FFFFFF00FFFF0102FFFFFFFFFFFFFFFF5C
:10119D00FFFFFFFFFFFFFFFF03FFFFFFFFFFFFFF4E
:1011AD0012011001EF020108091250C501010102DF
:1011BD000301120009024B000201008064080B00BC
:1011CD0002020201040904000001020201040524C7
:1011DD00001001052401000004240202052406006C
:1011ED00010705810308004009040100020A0000FF
:1011FD000407050202400000070582024000004B73
:10120D00000403090404000C0343004800350035B5
:10121D000078000C001603430048003500350078B7
:10122D00006400750069006E006F00160016034320
:10123D000044004300200053006500720069006106
:10124D00006C0016000E0344006500710069006E0D
:05125D000067000E0017
:0212620000008A
:0B12640000E100000000080000000096
:04126F000A0F0A0F49
:041273000000000077
:041277000000000073
:00000001FF
